:020000040800F2
:1000000000500020010300088D020008950200083E
:100010009D020008A5020008AD02000800000000D3
:10002000000000000000000000000000B502000811
:10003000C102000800000000CD020008D90200083B
:100040004903000849030008490300084903000860
:100050004903000849030008490300084903000850
:100060004903000849030008490300084903000840
:100070004903000849030008490300084903000830
:100080004903000849030008490300084903000820
:100090004903000849030008490300084903000810
:1000A0004903000849030008490300084903000800
:1000B00049030008490300084903000849030008F0
:1000C00049030008490300084903000849030008E0
:1000D00049030008490300084903000849030008D0
:1000E0004903000849030008490300080000000014
:1000F0000000000000000000000000000000000000
:0C01000000000000000000005FF808F1A3
:10010C0010B5054C237833B9044B13B10448AFF345
:10011C0000800123237010BD0800002000000000A7
:10012C009403000808B5034B1BB103490348AFF314
:10013C00008008BD000000000C00002094030008A3
:10014C0080B582B000AF00F039F800F049F8002318
:10015C007B600FE000BF0B4B1B6803F08003002B90
:10016C00F9D0094A7B6813441A78064B5A607B68AD
:10017C0001337B607B68062BECDD4FF47A7000F06A
:10018C0005F8E4E7003801400000002080B485B099
:10019C0000AF7860084B1B68FB6000BF064B1A6809
:1001AC00FB68D31A7A689A42F8D800BF00BF14379C
:1001BC00BD4680BC704700BF2400002080B400AF57
:1001CC00064B41F63F725A60044B00229A60034B77
:1001DC0007221A6000BFBD4680BC704710E000E0EB
:1001EC0080B400AF234B9B69224A43F00403936114
:1001FC00204B9B691F4A43F4804393611E4B5B6801
:10020C001D4A23F0F00353601B4B5B681A4A43F002
:10021C00B0035360184B5B68174A23F47063536048
:10022C00154B5B68144A43F480635360134B0022F4
:10023C00DA60124B00221A61104B00225A610F4BEC
:10024C0040F241329A600D4BDB680C4A43F00803D4
:10025C00D3600A4BDB68094A43F00403D360074BB5
:10026C00DB68064A43F40053D36000BFBD4680BC34
:10027C00704700BF001002400008014000380140E8
:10028C0080B400AF00BFFDE780B400AF00BFFDE756
:10029C0080B400AF00BFFDE780B400AF00BFFDE746
:1002AC0080B400AF00BFFDE780B400AF00BFBD4617
:1002BC0080BC704780B400AF00BFBD4680BC7047A7
:1002CC0080B400AF00BFBD4680BC704780B400AFA7
:1002DC00044B1B680133034A136000BFBD4680BC4E
:1002EC00704700BF2400002080B400AF00BFBD46A3
:1002FC0080BC7047FFF7F8FF0B480C490C4A0023F1
:10030C0002E0D458C4500433C4188C42F9D3094ABF
:10031C00094C002301E013600432A242FBD300F02D
:10032C000FF8FFF70DFF70470000002008000020B9
:10033C00B40300080800002028000020FEE700009D
:10034C0070B500260C4D0D4C641BA410A64209D1AF
:10035C0000F01AF800260A4D0A4C641BA410A642A1
:10036C0005D170BD55F8043B98470136EEE755F8BA
:10037C00043B98470136F2E7AC030008AC030008D5
:10038C00AC030008B0030008F8B500BFF8BC08BC0B
:10039C009E467047F8B500BFF8BC08BC9E46704737
:0403AC003101000813
:0403B0000D01000833
:0803B40048454C4C4F0D0A00B6
:0400000508000301EB
:00000001FF
